S00F0000484541544552332E7372656329
S11300000C943E000C949D050C94C6050C94EF05CD
S11300100C945B000C945B000C94B7060C945B008E
S11300200C945B000C945B000C947E060C944306C9
S11300300C945B000C945B000C945B000C945B00D0
S11300400C945B000C945B000C945B000C945B00C0
S11300500C945B00B400C900DE00F30008011D012C
S1130060320147015C0171019001A501BA01CF0180
S1130070E401F9010E02230238024D0211241FBECD
S1130080CFE5D8E0DEBFCDBF10E0A0E6B0E0EEE4FF
S1130090FEE002C005900D92A236B107D9F720E028
S11300A0A2E6B0E001C01D92AD38B207E1F70E94AC
S11300B0FB020C9425070C94000041E065E082E00B
S11300C00E940704089541E065E082E00E947D04F7
S11300D0089540E065E082E00E947D04089541E0D7
S11300E062E082E00E940704089541E062E082E059
S11300F00E947D04089540E062E082E00E947D0455
S113010008950E94D1030895CF93DF9300D000D0C7
S1130110CDB7DEB7BE016F5F7F4F81E00E94EA0377
S113012029813A814B815C81A4EFB1E00E941A07D6
S1130130DC01CB01072E7AE0B695A79597958795B4
S11301407A95D1F7702D0F900F900F900F90DF914B
S1130150CF91089590E08A30910508F0D6C0FC0153
S1130160E65DFF4F0C94050740E064E080E00E94E8
S11301707D0440E065E080E00E947D0440E066E0AC
S113018080E00E947D0440E067E080E00E947D04FE
S1130190089541E064E080E00E947D0440E065E071
S11301A080E00E947D0440E066E080E00E947D04DF
S11301B040E067E080E00E947D04089540E064E050
S11301C080E00E947D0441E065E080E00E947D04BF
S11301D040E066E080E00E947D0440E067E080E06B
S11301E00E947D04089541E064E080E00E947D0463
S11301F041E065E080E00E947D0440E066E080E04C
S11302000E947D0440E067E080E00E947D04089540
S113021040E064E080E00E947D0440E065E080E02E
S11302200E947D0441E066E080E00E947D0440E09D
S113023067E080E00E947D04089541E064E080E08E
S11302400E947D0440E065E080E00E947D0441E07E
S113025066E080E00E947D0440E067E080E00E9468
S11302607D04089540E064E080E00E947D0441E064
S113027065E080E00E947D0441E066E080E00E9449
S11302807D0440E067E080E00E947D04089541E041
S113029064E080E00E947D0441E065E080E00E942B
S11302A07D0441E066E080E00E947D0440E067E078
S11302B080E00E947D04089540E064E080E00E94B4
S11302C07D0440E065E080E00E947D0440E066E05B
S11302D080E00E947D0441E067E080E00E947D04AC
S11302E0089541E064E080E00E947D0440E065E020
S11302F080E00E947D0440E066E080E00E947D048E
S113030041E067E080E00E947D04089590E08A3037
S1130310910508F0D6C0FC01EC5CFF4F0C94050776
S113032040E064E081E00E947D0440E065E081E01B
S11303300E947D0440E066E081E00E947D0440E08C
S113034067E081E00E947D04089541E064E081E07B
S11303500E947D0440E065E081E00E947D0440E06D
S113036066E081E00E947D0440E067E081E00E9455
S11303707D04089540E064E081E00E947D0441E052
S113038065E081E00E947D0440E066E081E00E9437
S11303907D0440E067E081E00E947D04089541E02F
S11303A064E081E00E947D0441E065E081E00E9418
S11303B07D0440E066E081E00E947D0440E067E067
S11303C081E00E947D04089540E064E081E00E94A1
S11303D07D0440E065E081E00E947D0441E066E048
S11303E081E00E947D0440E067E081E00E947D049A
S11303F0089541E064E081E00E947D0440E065E00E
S113040081E00E947D0441E066E081E00E947D0479
S113041040E067E081E00E947D04089540E064E0EC
S113042081E00E947D0441E065E081E00E947D045A
S113043041E066E081E00E947D0440E067E081E005
S11304400E947D04089541E064E081E00E947D04FF
S113045041E065E081E00E947D0441E066E081E0E6
S11304600E947D0440E067E081E00E947D040895DD
S113047040E064E081E00E947D0440E065E081E0CA
S11304800E947D0440E066E081E00E947D0441E03A
S113049067E081E00E947D04089541E064E081E02A
S11304A00E947D0440E065E081E00E947D0440E01C
S11304B066E081E00E947D0441E067E081E00E9403
S11304C07D04089541E063E081E00E94070441E077
S11304D064E080E00E94070441E065E080E00E945F
S11304E0070441E066E080E00E94070441E067E021
S11304F080E00E94070441E064E081E00E94070478
S113050041E065E081E00E94070441E066E081E0AB
S11305100E94070441E067E081E00E94070440E094
S113052063E081E00E947D04089541E063E081E09E
S11305300E947D042FEF83EC99E02150804090408D
S1130540E1F700C0000040E063E081E00E947D0428
S11305500895CF93DF93AC019C01ADECBCEC0E94F9
S11305600B07EC01D695C795D695C795D695C79533
S1130570CE01880F991FCC0FDD1FCC0FDD1FCC0FD0
S1130580DD1FC80FD91FCA018C1B9D0BEC010E94F3
S11305900B079695879596958795969587950E94CE
S11305A0AA008C2F0E948601DF91CF9108951092AA
S11305B0890081E080938B0008950E94280681E0E1
S11305C080938A0080938C0010928B008091790034
S11305D08F5F8093790008950E94280681E08093BC
S11305E08A008093880010928B00809179008F5F3D
S11305F08093790008950E9481000E9462020E9403
S11306005D000E946F000E941C0687ED92E00E942C
S11306103C0640E062E083E00E94070440E063E0BF
S113062083E00E94070440E061E080E00E94070448
S11306308DED92E00E948F058CEE92E00E9496056B
S11306400E94180661E080E00E942B0561E081E0D1
S11306500E942B0510928A0081E080938B001092F7
S1130660790081E08093890080918A00813009F0CB
S11306704CC010928A0043C00E9495022FEF83EC75
S113068099E0215080409040E1F700C00000809143
S11306907900813031F48091600090E00E94A902D9
S11306A02EC0823060F180918C00813091F40E94E0
S11306B032060E942806809160008B3418F48B5F08
S11306C0809360008091600090E00E94A9021092E3
S11306D08C0080918800813091F40E9432060E943F
S11306E0280680916000843218F085508093600061
S11306F08091600090E00E94A9021092880080918D
S113070089008111B9CF1092790080918B008130DA
S113071009F0A7CF40E063E00E947D040E948400BA
S1130720AC0160E070E040937A0050937B006093EA
S11307307C0070937D000E94A9028091600090E08B
S1130740A0E0B0E040917A0050917B0060917C0081
S113075070917D00481759076A077B0748F40E9487
S1130760750067E082E00E94F3040E94690079CF7B
S113077084179507A607B70750F40E94630041E069
S113078067E082E00E947D040E947B006ACF0E94A1
S1130790690040E067E082E00E947D040E947B00E3
S11307A060CF87B1806487B987B18F7787B987B104
S11307B08F7D87B986B18F7D86B986B1816086B910
S11307C086B1826086B986B1846086B986B1806854
S11307D086B908958032D0F461157105B9F097B1E6
S11307E0907E97B997B1892B87B986B1806486B911
S11307F0349BFECF86B1806186B984B195B1A0E007
S1130800B0E0FB0180839183A283B3830895843095
S113081008F072C0683008F06FC0423008F06CC055
S1130820813001F130F08230B1F1833009F44CC0F1
S11308300895413059F42AB381E090E002C0880F52
S1130840991F6A95E2F7822B8ABB08952AB381E047
S113085090E002C0880F991F6A95E2F78095822381
S11308608ABB0895413059F427B381E090E002C077
S1130870880F991F6A95E2F7822B87BB089527B3E7
S113088081E090E002C0880F991F6A95E2F7809595
S1130890822387BB0895413059F424B381E090E06A
S11308A002C0880F991F6A95E2F7822B84BB0895D2
S11308B024B381E090E002C0880F991F6A95E2F7A3
S11308C08095822384BB0895413059F421B381E09B
S11308D090E002C0880F991F6A95E2F7822B81BBD2
S11308E0089521B381E090E002C0880F991F6A95B2
S11308F0E2F78095822381BB0895843008F072C0AA
S1130900683008F06FC0423008F06CC0813001F1EB
S113091030F08230B1F1833009F44CC00895413095
S113092059F42BB381E090E002C0880F991F6A95B7
S1130930E2F7822B8BBB08952BB381E090E002C0D9
S1130940880F991F6A95E2F7809582238BBB0895DF
S1130950413059F428B381E090E002C0880F991F18
S11309606A95E2F7822B88BB089528B381E090E072
S113097002C0880F991F6A95E2F78095822388BB8D
S11309800895413059F425B381E090E002C0880F06
S1130990991F6A95E2F7822B85BB089525B381E000
S11309A090E002C0880F991F6A95E2F78095822330
S11309B085BB0895413059F422B381E090E002C030
S11309C0880F991F6A95E2F7822B82BB089522B3A0
S11309D081E090E002C0880F991F6A95E2F7809544
S11309E0822382BB08958430A8F5683098F581305D
S11309F089F028F08230C9F0833011F108952BB3C7
S1130A0081E090E002C0880F991F6A95E2F782277F
S1130A108BBB089528B381E090E002C0880F991F32
S1130A206A95E2F7822788BB089525B381E090E0B8
S1130A3002C0880F991F6A95E2F7822785BB089543
S1130A4022B381E090E002C0880F991F6A95E2F713
S1130A50822782BB0895813061F120F0823009F44D
S1130A604FC00895611107C085B7816085BF85B700
S1130A70826085BF1AC0613039F485B78E7F85BF27
S1130A8085B7826085BF11C0623039F485B78E7F27
S1130A9085BF85B78D7F85BF08C0633031F485B7C6
S1130AA0816085BF85B78D7F85BF8BB780648BBF21
S1130AB00895611107C085B7846085BF85B78860D4
S1130AC085BF1AC0613039F485B78B7F85BF85B780
S1130AD0886085BF11C0623039F485B78B7F85BFCC
S1130AE085B7877F85BF08C0633031F485B78460DC
S1130AF085BF85B7877F85BF8BB780688BBF089517
S1130B00611104C084B7806484BF05C0613019F4E6
S1130B1084B78F7B84BF8BB780628BBF08950097A7
S1130B2021F090936700809366000895009721F068
S1130B30909365008093640008951F920F920FB6FE
S1130B400F9211242F933F934F935F936F937F934F
S1130B508F939F93AF93BF93EF93FF93E0916600BE
S1130B60F0916700309709F00995FF91EF91BF91DB
S1130B70AF919F918F917F916F915F914F913F9131
S1130B802F910F900FBE0F901F9018951F920F92E8
S1130B900FB60F9211242F933F934F935F936F934C
S1130BA07F938F939F93AF93BF93EF93FF93E091C2
S1130BB06400F0916500309709F00995FF91EF9179
S1130BC0BF91AF919F918F917F916F915F914F9161
S1130BD03F912F910F900FBE0F901F9018951F9269
S1130BE00F920FB60F9211242F933F934F935F935D
S1130BF06F937F938F939F93AF93BF93EF93FF93E1
S1130C00E0916200F0916300309709F00995FF913B
S1130C10EF91BF91AF919F918F917F916F915F9170
S1130C204F913F912F910F900FBE0F901F901895E9
S1130C308FB780688FBF089583B78F7B83BF83B7D7
S1130C40877F83BF82E582BF89B7816089BF0895AA
S1130C5083B7816083BF83B7826083BF83B78B7F91
S1130C6083BF089583B78E7F83BF83B78D7F83BF90
S1130C7083B78B7F83BF0895009721F0909378000A
S1130C808093770008951F920F920FB60F9211244C
S1130C902F933F934F935F936F937F938F939F9380
S1130CA0AF93BF93EF93FF9380916F009091700087
S1130CB001969093700080936F00883B9B4069F489
S1130CC082E582BF1092700010926F00E09177006D
S1130CD0F0917800309709F00995FF91EF91BF9159
S1130CE0AF919F918F917F916F915F914F913F91C0
S1130CF02F910F900FBE0F901F9018951F920F9277
S1130D000FB60F9211242F933F934F935F936F93DA
S1130D107F938F939F93AF93BF93EF93FF938091B0
S1130D206D0090916E00019690936E0080936D001B
S1130D30883E934059F410926E0010926D00E09139
S1130D407500F0917600309709F00995FF91EF91C5
S1130D50BF91AF919F918F917F916F915F914F91CF
S1130D603F912F910F900FBE0F901F9018951F92D7
S1130D700F920FB60F9211242F933F938F939F934B
S1130D8086B597B590936C0080936B0020916A00B0
S1130D902130A1F42091680030916900821B930BEB
S1130DA0880F991F880F991F909372008093710088
S1130DB08EB58F7B8EBD10926A0016C0211114C0AF
S1130DC02091680030916900821B930B880F991F52
S1130DD0880F991F90937400809373008EB580647C
S1130DE08EBD81E080936A0080916B0090916C00CD
S1130DF090936900809368009F918F913F912F9108
S1130E000F900FBE0F901F901895EE0FFF1F0590C7
S1130E10F491E02D0994A29FB001B39FC001A39F58
S1130E20700D811D1124911DB29F700D811D11241F
S1130E30911D08950E940B07A59F900DB49F900DDE
S1110E40A49F800D911D11240895F894FFCFF6
S1050E4E3C0062
S9030000FC
